:100000000C94F1090C942A0A0C942A0A0C942A0ADA
:100010000C942A0A0C942A0A0C942A0A0C942A0A90
:100020000C942A0A0C942A0A0C942A0A0C942A0A80
:100030000C942A0A0C94B43E0C942A0A0C942A0AB2
:100040000C942A0A0C942A0A0C942A0A0C942A0A60
:100050000C942A0A0C942A0A0C942A0A0C942A0A50
:100060000C942A0A0C94B8A10C942A0A0C94E4A1CA
:100070000C942A0A0C94C0940C942A0A0C942A0A10
:100080000C948A3E0C942A0A0C942A0A0C942A0A8C
:100090000C942A0A0C942A0A0C942A0A0C942A0A10
:1000A0000C942A0A0C942A0A0C942A0A0C942A0A00
:1000B0000C942A0A0C942A0A0C942A0A0C94DC3E0A
:1000C0000C942A0A0C942A0A0C942A0A0C942A0AE0
:1000D0000C942A0A0C942A0A0C9418A20C942A0A4A
:1000E0000C9457A2A71AD41BEE1B281C341C571CB7
:1000F0009D1CB01C361E571ED21E3D1EB81E1F1F53
:100100009D1F1F21F820BE21B3229721AB229022F0
:10011000B322AD21B3225E1ED91EE71E6C1EB12094
:10012000B120C120C120B920B920C120C120B920EF
:10013000B920B120B120F73765382A381C38373854
:10014000D038D0381C385838D038673874388838A8
:100150008D38D038D03841381C385338D03805382D
:100160003C389238A538AC38D038D038B038797EA1
:10017000947EA47EB97E9C7E817EC27EDF7ECB7E15
:100180006B936D936F937493799381938693BAA9CC
:10019000E4A9B8A9C3A9CCA9CFA9C3A9CCA9CFA9BF
:1001A000D8A96FC573C573C573C573C573C573C54A
:1001B00073C573C573C577C577C577C577C577C56B
:1001C0007BC57BC57BC57BC57BC57FC57FC57FC523
:1001D0007FC57FC583C583C583C583C583C587C5E3
:1001E00087C587C587C587C58BC58BC58BC58BC59F
:1001F0008BC58FC58FC58FC58FC58FC593C593C55B
:1002000093C593C593C597C5A3C5A3C5A3C5A3C5EA
:10021000B3C5B3C5B3C5B3C5B3C5BFC5BFC5BFC5FA
:10022000BFC5BFC5CBC5CBC5CBC5CBC5CBC5D7C55A
:10023000D7C5D7C5D7C5D7C5E3C5E3C5E3C5E3C5AE
:10024000E3C5EFC5EFC5EFC5EFC5EFC5FBC5FBC502
:10025000FBC5FBC5FBC507C607C607C607C607C65D
:1002600013C613C613C613C613C620C6502D537427
:100270006F702074726967676572656400B7A2C9A0
:10028000FAC7CCB1DFA3ACC8A1CFFBB4F2D3A14075
:10029000456467652057617270204572726F7240C5
:1002A000313233340024F4D43050C38E20C2A24003
:1002B00017828B7011127A910D816CD90AA861E1B5
:1002C00008C7586607615143061E4B5D05C145A727
:1002D000041A411104093D9803713931034036DB9A
:1002E0000265339102D4305402802E1D02632CEE3D
:1002F00001752AC501B028A001102781018F25644E
:10030000012B244B01E0223401AC211F018D200D73
:1003100001801FFC00841EED00971DDF00B81CD279
:1003200000E61BC600201BBC00641AB200B219A86C
:10033000000A19A0006A189900D117910040178B84
:1003400000B516840031167E00B31579003A157396
:1003500000C7146F0058146A00EE13660088136318
:100360000025135E00C7125B006C12570015125473
:1003700000C111510070114F0021114B00D61049DE
:10038000008D1047004610440002104200C00F408C
:1003900000800F3E00420F3C00060F3B00CB0E38A2
:1003A00000930E37005C0E3500270E3400F30D323B
:1003B00000C10D3100900D3000600D2E00320D2D6A
:1003C00000050D2C00D90C2B00AE0C2900850C2942
:1003D000005C0C2700350C27000E0C2600E80B24CF
:1003E00000C40B2400A00B23007D0B23005A0B211B
:1003F00000390B2100180B2000F80A1F00D90A1E33
:1004000000BB0A1E009D0A1D00800A1D00630A1C15
:1004100000470A1B002C0A1B00110A1A00F7091AD0
:1004200000DD091900C4091900AB09190092091768
:10043000007B091800630917004C091600360916DD
:1004400000200916000A091500F5081500E0081437
:1004500000CC081400B8081400A408140090081375
:10046000007D0812006B081300580812004608129D
:1004700000340811002308110012081100010811AE
:1004800000F0071000E0071000D0071000C00710B0
:1004900000B0070F00A107100091070E0083070F9F
:1004A0000074070F0065070E0057070E0049070E7E
:1004B000003B070D002E070E0020070D0013070D4F
:1004C0000006070D00F9060C00ED060D00E0060C15
:1004D00000D4060C00C8060C00BC060C00B0060CCC
:1004E00000A4060B0099060C008D060B0082060B7B
:1004F0000077060B006C060B0061060A0057060B1E
:10050000004C060A0042060A0038060A002E060AB7
:100510000024060A001A060A001006090007060A47
:1005200000FD050900F4050900EB050900E20509D5
:1005300000D9050900D0050900C7050900BE050955
:1005400000B5050800AD050800A50509009C0508D3
:1005500000940508008C050800840508007C050847
:1005600000740508006C050700650508005D0507B7
:1005700000560508004E050700470507004005081E
:100580000038050700310507002A05070023050785
:10059000001C050600160507000F050700080506E4
:1005A0000002050700FB040600F5040700EE040640
:1005B00000E8040600E2040700DB040600D5040698
:1005C00000CF040600C9040600C3040600BD0406EB
:1005D00000B7040600B1040500AC040600A604063A
:1005E00000A00405009B0406009504050090040685
:1005F000008A04050085040500800406007A0405CD
:100600000075040500700405006B04050066040510
:1006100000610405005C0405005704050052040550
:10062000004D04050048040500430405003E040491
:10063000003A04050035040500300404002C0405CC
:100640000027040400230405001E0404001A040407
:100650000016040500110404000D0404000904053B
:10066000000404040000040400FC030400F8030474
:1006700000F4030400F0030400EC030400E80304A6
:1006800000E4030400E0030400DC030400D80304D6
:1006900000D4030400D0030400CC030400C8030307
:1006A00000C503030024F404D9201BC40C5C0E987D
:1006B00004C4095F0265077101F405F900FB04B386
:1006C0000048048700C1036900580355000303452F
:1006D00000BE023A008402310053022A002902259A
:1006E0000004022000E4011C00C8011900AF01173A
:1006F00000980114008401130071011000610110C1
:100700000051010E0043010D0036010B002B010BBF
:100710000020010B00150109000C0109000301086C
:1007200000FB000800F3000800EB000700E40006EF
:1007300000DE000600D8000600D2000600CC00054E
:1007400000C7000500C2000500BD000400B9000498
:1007500000B5000400B1000400AD000400A90004CD
:1007600000A5000300A20003009F0004009B0003FB
:10077000009800030095000200930003009000031E
:10078000008D0002008B000300880002008600023A
:100790000084000300810002007F0002007D00024F
:1007A000007B000200790002007700010076000261
:1007B000007400020072000100710002006F00026C
:1007C000006D0001006C0002006A00010069000277
:1007D000006700010066000100650001006400027E
:1007E000006200010061000100600001005F000282
:1007F000005D0001005C0001005B0001005A000187
:100800000059000100580001005700010056000186
:100810000055000100540001005300000053000186
:10082000005200010051000100500001004F000182
:10083000004E0000004E0001004D0001004C000180
:10084000004B0000004B0001004A0001004900017C
:100850000048000000480001004700010046000079
:100860000046000100450000004500010044000171
:10087000004300000043000100420000004200016C
:10088000004100000041000100400001003F000065
:10089000003F0001003E0000003E0001003D00005E
:1008A000003D0001003C0000003C0000003C000155
:1008B000003B0000003B0001003A0000003A00014C
:1008C0000039000000390001003800000038000045
:1008D000003800010037000000370001003600003A
:1008E0000036000000360001003500000035000031
:1008F0000035000100340000003400000034000125
:10090000003300000033000000330001003200001B
:100910000032000000320001003100000031000010
:100920000031000100300000003000000030000104
:10093000002F0000002F0000002F0000002F0001FA
:10094000002E0000002E0000002E0001002D0000EF
:10095000002D0000002D0000002D0001002C0000E3
:10096000002C0000002C0000002C0001002B0000D7
:10097000002B0000002B0000002B0001002A0000CB
:10098000002A0000002A0000002A000100290000BF
:1009900000290000002900000029000000290001B2
:1009A00000280000002800000028000000280000A7
:1009B0000028000100270000002700000027000099
:1009C000002700000027000100260000002600008C
:1009D000002600000026000000260001002500007F
:1009E0000025000000250000002500000025000073
:1009F0000025000100240000002400000024000065
:100A00000024000000240001002300000023000057
:100A1000002300000023000000230000002300004A
:100A2000002300010022000000220000002200003C
:100A3000002200000022000000220001002100002E
:100A40000021000000210000002100000021000022
:100A50000021000000210001002000000020000013
:100A60000020000000200000002000000020000006
:100A70000020000000200001001F0000001F0000F7
:100A8000001F0000001F0000001F0000001F0000EA
:100A9000001F0001001E0000001E0000001E0000DC
:100AA000001E00000000002110422063308440A599
:100AB00050C660E770088129914AA16BB18CC1AD25
:100AC000D1CEE1EFF13112100273325222B55294BD
:100AD00042F772D662399318837BB35AA3BDD39C75
:100AE000C3FFF3DEE36224433420040114E664C749
:100AF00074A44485546AA54BB528850995EEE5CFC5
:100B0000F5ACC58DD55336722611163006D776F65C
:100B1000669556B4465BB77AA719973887DFF7FE14
:100B2000E79DD7BCC7C448E5588668A778400861E8
:100B30001802282338CCC9EDD98EE9AFF948896964
:100B4000990AA92BB9F55AD44AB77A966A711A50FC
:100B50000A333A122AFDDBDCCBBFFB9EEB799B58B4
:100B60008B3BBB1AABA66C877CE44CC55C222C0388
:100B70003C600C411CAEED8FFDECCDCDDD2AAD0B04
:100B8000BD688D499D977EB66ED55EF44E133E329C
:100B90002E511E700E9FFFBEEFDDDFFCCF1BBF3A54
:100BA000AF599F788F8891A981CAB1EBA10CD12D43
:100BB000C14EF16FE18010A100C230E32004502546
:100BC0004046706760B9839893FBA3DAB33DC31CBA
:100BD000D37FE35EF3B1029012F322D23235421496
:100BE0005277625672EAB5CBA5A89589856EF54F06
:100BF000E52CD50DC5E234C324A0148104667447E6
:100C00006424540544DBA7FAB79987B8975FE77E59
:100C1000F71DC73CD7D326F2369106B01657667635
:100C200076154634564CD96DC90EF92FE9C899E9A5
:100C3000898AB9ABA94458654806782768C018E185
:100C4000088238A3287DCB5CDB3FEB1EFBF98BD8F9
:100C50009BBBAB9ABB754A545A376A167AF10AD0D5
:100C60001AB32A923A2EFD0FED6CDD4DCDAABD8B45
:100C7000ADE89DC98D267C076C645C454CA23C8325
:100C80002CE01CC10C1FEF3EFF5DCF7CDF9BAFBA99
:100C9000BFD98FF89F176E367E554E745E932EB275
:100CA0003ED10EF01ECEC2B6C8B3ACB3F6B7B6CEC8
:100CB000A7A3ACC7EBBCECB2E9B5E720C2B700CE46
:100CC000C2B6C8B6C1C8A1CAA7B0DCA3ACC7EBBC4A
:100CD000ECB2E9B5E720C2B700CEC2B6C8CFC2BDFC
:100CE000B5A3ACC7EBBCECB2E9B5E7C2B720202096
:100CF00000BCD3C8C8D2ECB3A3A3ACC7EBBCECB266
:100D0000E9B5E7C2B720202000CEC2B6C8B4EFB51F
:100D1000BDBCABCFDEA3ACCDA3D6B9BCD3C8C82075
:100D200000C6BDCCA8BCD3C8C8CAA7B0DC20202050
:100D3000202020202020202000D7F3C5E7CDB7BCFD
:100D4000D3C8C8CAA7B0DC20202020202020202023
:100D500000D3D2C5E7CDB7BCD3C8C8CAA7B0DC2082
:100D6000202020202020202000C5E7CDB7BCD3C8FC
:100D7000C8CAA7B0DC20202020202020202020204E
:100D800000BCD3C8C8CAA7B0DC2020202020202067
:100D9000202020202020202000CEC2B6C8CCF8B1D0
:100DA000E4A3ACC7EBD6D8D0C2BCD3C8C82020209F
:100DB00000C6BDCCA8BCD3C8C8B3ACCAB100C5E797
:100DC000CDB7BCD3C8C8B3ACCAB10054656D7065AB
:100DD000726174757265207265616473206F7574D9
:100DE000202072616E67652E20436865636B2077F3
:100DF0006972696E672E0054656D706572617475F5
:100E0000726520726561647320617265202066617D
:100E1000696C696E672E20436865636B2077697221
:100E2000696E672E0054656D7065726174757265C8
:100E30002064726F7070696E67202020436865635C
:100E40006B20776972696E672E004E6F742068653B
:100E50006174696E672070726F7065726C792020A2
:100E600020436865636B20776972696E672E005452
:100E7000656D70206C696D69742072656163686569
:100E8000642E2020202053687574646F776E206F65
:100E90007220726573746172742E00506C61746696
:100EA0006F726D204661696C75726521202020206B
:100EB000202000546F6F6C2031204661696C757280
:100EC0006521202020202020202000546F6F6C20DE
:100ED00030204661696C7572652120202020202019
:100EE0002020004578747275646572204661696CD3
:100EF00075726521202020202020004865617465DE
:100F000072732073687574646F776E2064756520E2
:100F10002020746F20696E6163746976697479004A
:100F20004D792074656D7065726174757265207796
:100F3000617320202020206368616E6765642065EE
:100F4000787465726E616C6C792E20202020526559
:100F500073656C6563742066696C616D656E742081
:100F600020206D656E7520746F2074727920616722
:100F700061696E2E00486561742068622074696D35
:100F800065206F75740048656174206578747275AA
:100F90006465722074696D65206F757400D0FEC041
:100FA000FF18FFD0FF63FFE0FFB1FFF0FF0000007C
:100FB0000052001000A4002000F80030004D014055
:100FC00000A2015000F70160004C027000A00280F6
:100FD00000F30290004503A0009703B000E903C0AE
:100FE000003B04D0008D04E000E004F00033050075
:100FF0000187051001DB05200130063001DA0650BB
:1010000001010049033600FF006B00D100A000B8C9
:1010100000D500A6000A0199003F018E00740184EA
:1010200000A9017C00DE01740013026C0048026517
:10103000007D025D00B2025600E7024E001C03462E
:101040000051033D0086033200BB032200F003037E
:10105000001704C8000000DC0027056400000078C9
:10106000007505C8000000DC002006640000007860
:1010700000E006C8000000DC002006C8000000DC1C
:10108000002006C8000000DC002D08C80000000099
:1010900000C00DC80000001400C00DC800000014FE
:1010A000005A10C80000001400C00D90010000009C
:1010B0000070039001000014005504C800000014E3
:1010C000002705C800000014007003900100000014
:1010D00000C805C80000001400C805C800000014BE
:1010E00000C805C80000001400DD04B004000014AE
:1010F000007505C800000014007505C80000001444
:10110000007505C800000014009704B0040000003A
:1011100000C00DC80000001400C00DC8000000147D
:1011200000910E9001000014005A1090010000146C
:1011300000C00D2003000000007003BC000000BCD4
:1011400000E006BC000000BC00B807BC000000BC0A
:10115000002D08BC00A908BC000000BC00C00D4D5B
:101160000100000000C00D20010000BC005311BCB4
:10117000000000BC005B12B1010000000093026996
:101180000000006900EE016900000069002601B856
:1011900001000000008B000000000000000090062D
:1011A0000000000000000000000040000000840378
:1011B0006901000014008CD73A0000882700000065
:1011C00000000000000000000000009B7A1A0000F0
:1011D00010260000000000000000000000000000D9
:1011E0004D4C000018852EB042ED338304440000BE
:1011F0000014008C0000000000000000000000004F
:1012000000000000000000009B0000000000000043
:1012100000606102000000000000000000F03C00DF
:10122000001800004343E004891F9B0000000000F9
:10123000000000900600000000000000000000EF29
:101240003C000018CDCCBC40E004860088000302BE
:101250001E0084036901000014008CD63A00008847
:101260002700000000000000000000000000009BBC
:10127000A91A00000F260000000000000000000076
:1012800000000000336E000018C92EAF42004B83EF
:10129000044B00000014008C00000000000000005F
:1012A00070F9FFFF00000000000000009B0000003C
:1012B0000000000000A00F0000000000000000007F
:1012C00000F03C0000183333E340E0049B57E5FF97
:1012D000FFF1D9FFFFA00F00000000000000000098
:1012E000009010000018AABBFC42C00D9B57E5FF00
:1012F000FFF1D9FFFF000000000000000000000027
:10130000000A1A0000180000A040150288000C0115
:1013100000891F84036901000014008C9D260000D1
:10132000EF220000000000000000000000000000AC
:10133000891F84036901000014008C9D260000EFC2
:1013400022000000000000000000000000000089F2
:101350001F84036901000014008CD63A000088271E
:1013600000000000000000000000000000009BA939
:101370001A00000F2600000000000000000000001E
:10138000000000336E000018C92EAF42004B8304EA
:101390004B00000014008C00000000000000000062
:1013A00000000000000000000000009B00000000A2
:1013B0000000000000190000000000000000000014
:1013C0001534000018000000412A04891F007432FF
:1013D000173A5841FC46007AEA94A4A253A950AEA9
:1013E00052D5ECEFFFE185EC91E201C08193EF3F34
:1013F000F907E0F3D9F311241FBECFEFD1E2DEBF2E
:10140000CDBF17E0A0E0B2E0ECECF7EB01E00BBFE2
:1014100002C007900D92AE37B107D9F72FE1AEE7C2
:10142000B7E001C01D92AC3FB207E1F713E1C2EE95
:10143000D3E100E006C022970109FE010BBF0E9424
:10144000D8DACE3CD10780E00807A9F70E945F3ABE
:101450000C94E4DB0C9400006BBFFA01DC0102C0C9
:1014600007900D9221503040D8F708958091570A87
:1014700081110AC08091560A8F5F8093560A853089
:1014800018F081E08093570A089581E00E94893F17
:1014900060E087ED9AE00C94593FF89420914E0853
:1014A00030914F0880914C0890914D08821B930B0E
:1014B00078940895CF93DF93EB01BC0180E39BE028
:1014C0000E944ACEBE0180E39BE00E946FCEE09175
:1014D000040CEE0FFF0BEE50F44F8081918180538E
:1014E0009B4039F060E37BE086EE9BE00E9449ACD4
:1014F00004C080E39BE00E94A6CE81E08093A00B15
:10150000DF91CF9108951092A00BE091040CEE0FA3
:10151000FF0BEE50F44F8081918180539B4021F46A
:1015200086EE9BE00E94D1ACE091040CEE0FFF0B25
:10153000EE50F44F80819181DC01ED91FC910480AB
:10154000F581E02D09948091010208951092FF0722
:101550000895882311F080E401C080E88093450855
:10156000609342081092580A089581E080934108E0
:10157000089580914508181634F480914208882314
:1015800021F082E0089580E0089581E0089580913F
:101590004508089581E090914508923008F480E074
:1015A0000895CF93DF93CDB7DEB764970FB6F89465
:1015B000DEBF0FBECDBF6093290870932A088093C9
:1015C0002B0890932C08CE0101960E94167162E0C0
:1015D00070E0CE0101960E947542FC01408151816C
:1015E000628173818091290890912A08A0912B082B
:1015F000B0912C08481759076A077B071CF0109216
:10160000280803C081E08093280864960FB6F894F8
:10161000DEBF0FBECDBFDF91CF91089520914E0860
:1016200030914F0881E0232B09F080E00895CF939B
:101630001092D2071092D10785E68093010260E0F4
:1016400070E0CB010E94D10A109228081092F40792
:101650001092F5071092F6071092F7071092F8070C
:10166000C1E0C09300021092590A10924F081092E4
:101670004E0810925108109250081092540810927F
:101680005508109247081092480810924908109285
:101690004A08109246081092450810924408109289
:1016A00043081092420810922008109221081092CC
:1016B00022081092230810922408109225081092F4
:1016C00026081092270810921808109219081092F4
:1016D0001A0810921B0810921C0810921D081092F4
:1016E0001E0810921F0810921008109211081092F4
:1016F00012081092130810921408109215081092F4
:1017000016081092170810920808109209081092F3
:101710000A0810920B0810920C0810920D081092F3
:101720000E0810920F0810920408109205081092EB
:1017300006081092070810920008109201081092F3
:1017400002081092030861E082E490E00E94C1AABE
:10175000823039F460E08FEF9FE00E94C1AA8111CE
:101760001CC01092D0071092580A1092560A10927C
:10177000570A1092CD071092CC071092CF07109203
:10178000CE071092FA071092F9071092FC071092F8
:10179000FB071092CB07CF910895C093D007E3CFFA
:1017A00081E09091CB07963009F080E00895609138
:1017B0004708709148088091490890914A08089517
:1017C00010924708109248081092490810924A084F
:1017D00008958F929F92AF92BF92DF92EF92FF9205
:1017E0000F931F93CF93DF93CDB7DEB7AA970FB6B2
:1017F000F894DEBF0FBECDBFD82E882321F081E044
:101800008093FF0705C08091FF07882309F4E9C092
:10181000CE0145960E94167181E089A78AA77E01B4
:1018200089E2E80EF11C03E010E084EA9CE0FC0190
:10183000E456FF4F2081222319F0E755F10903C038
:10184000FC01ED58FF4F20813181232B61F14B9634
:101850000E94DB97882339F1F70180818D11BCC08C
:10186000812C912C54018394402F60E070E080E043
:1018700090E40E94966EA50194010E94D8D84B0175
:101880005C01B801CE0145960E947C42FC0140817A
:10189000518162817381480D591D6A1D7B1D4083F2
:1018A0005183628373830430110541F0EFEFEE1A28
:1018B000FE0A80E69DE004E010E0B9CF60ED77E03D
:1018C0008CEE91E00E94D8AABC0180E090E00E94DA
:1018D00026D7209198173091991740919A175091D7
:1018E0009B170E942CD89B01AC0160E074E284E756
:1018F00099E40E9453D60E94F5D64B015C01809179
:10190000D007882329F180914B0881110AC064E037
:1019100070E0CE0145960E947C428C0163E070E04D
:1019200009C063E070E0CE0145960E947C428C01C4
:1019300064E070E0CE0145960E947C42FC0180810B
:101940009181A281B381F80180839183A283B383C3
:10195000E12C00E010E09801B501A401CE0145960C
:101960000E943E72D1103DC0CE0101960E941671B8
:1019700063E070E0CE0101960E947C428C0163E03E
:1019800070E08DE298E00E947C42FC014081518130
:1019900062817381F801408351836283738364E0C1
:1019A00070E0CE0101960E947C428C0164E070E000
:1019B0008DE298E00E947C42FC014081518162816D
:1019C0007381F801408351836283738360E0CE01A9
:1019D00001960E948D7005C088248A94982C540129
:1019E00043CFAA960FB6F894DEBF0FBECDBFDF91EE
:1019F000CF911F910F91FF90EF90DF90BF90AF902C
:101A00009F908F9008952F923F924F925F926F9286
:101A10007F928F929F92AF92BF92CF92DF92EF927E
:101A2000FF920F931F93CF93DF93CDB7DEB7CC56C2
:101A3000D1090FB6F894DEBF0FBECDBF182FCE016F
:101A4000CD960E944042CE0189960E9440421123C9
:101A500009F49FC1E6E2F7E18081882309F4B1C36C
:101A6000DF0111978C91882309F4ABC3B99627E164
:101A7000E13AF20789F784E1EDE2F8E0DE015596FC
:101A800001900D928A95E1F7CE0101960E941671A0
:101A900060E070E0CE0145960E947C425C0140917E
:101AA0002B1750912C1760912D1770912E178EE0E7
:101AB00090E00E94F2AA6B017C0180E00E94726EAD
:101AC00020E030E040EA50E40E942CD80E94F5D695
:101AD000C61AD70AE80AF90AF501C082D182E28261
:101AE000F38261E070E0CE0145960E947C425C0189
:101AF0004091541750915517609156177091571790
:101B000082E190E00E94F2AA6B017C0181E00E94D8
:101B1000726E20E030E040EA50E40E942CD80E942F
:101B2000F5D6C61AD70AE80AF90AF501C082D182A9
:101B3000E282F38262E070E0CE0145960E947C4230
:101B400040917D1750917E1760917F17709180179B
:101B5000FC01408351836283738363E070E0CE01B4
:101B600045960E947C428C0163E070E0CE010196B4
:101B70000E947C42FC014081518162817381F801A5
:101B8000408351836283738364E070E0CE014596A5
:101B90000E947C428C0164E070E0CE0101960E94BC
:101BA0007C42FC014081518162817381F801408354
:101BB000518362837383BE016B5E7F4FCE018F5A68
:101BC0009F4F0E944F7084E1FE01EF5AFF4FDE01EC
:101BD000999601900D928A95E1F760917317709133
:101BE000741780917517909176170E9428D720E07E
:101BF00030E040E857E30E942CD820916F173091D5
:101C0000701740917117509172170E942CD80E9442
:101C1000F5D6A9966CAF7DAF8EAF9FAFA997CE01D9
:101C20008F5A9F4F0E94167184E1FE01EF5AFF4FB9
:101C3000DE01119601900D928A95E1F760E070E067
:101C4000CE0101960E947C42FC01C080D180E280DE
:101C5000F38060E070E0CE0189960E947C42FC0136
:101C600080819181A281B381A7019601281B390B44
:101C70004A0B5B0BCA01B9010E9428D720911D179E
:101C800030911E1740911F17509120170E9453D674
:101C90002B013C0161E070E0CE0101960E947C4284
:101CA000FC01C080D180E280F38061E070E0CE0171
:101CB00089960E947C42FC0180819181A281B3813E
:101CC000A7019601281B390B4A0B5B0BCA01B9010E
:101CD0000E9428D720914617309147174091481706
:101CE000509149170E9453D64B015C0162E070E0AD
:101CF000CE0101960E947C42FC01C080D180E2802E
:101D0000F38062E070E0CE0189960E947C42FC0183
:101D100080819181A281B381A7019601281B390B93
:101D20004A0B5B0BCA01B9010E9428D720916F179B
:101D30003091701740917117509172170E9453D6CD
:101D40006B017C01A3019201C301B2010E942CD856
:101D50002B013C01A5019401C501B4010E942CD8BE
:101D60009B01AC01C301B2010E94D8D54B015C01BB
:101D7000A7019601C701B6010E942CD89B01AC01B6
:101D8000C501B4010E94D8D50E9493D84B015C01D3
:101D9000C8C184E1EDE2F8E0DE01999601900D9270
:101DA0008A95E1F7CE0145960E94167143E060E006
:101DB00070E080E291E40E94966E6B017C0160ED20
:101DC00077E08CEE91E00E94D8AABC0180E090E020
:101DD0000E9426D7209198173091991740919A1711
:101DE00050919B170E942CD89B01AC0160E074E2DB
:101DF00084E799E40E9453D60E94F5D69B01AC017A
:101E0000A3E0B0E00E9472D9A9966CAF7DAF8EAF0F
:101E10009FAFA99764E070E0CE0145960E947C4296
:101E2000FC0140805180628073804C185D086E0810
:101E30007F0863E070E0CE0145960E947C42FC0181
:101E400080809180A280B3808C189D08AE08BF0866
:101E500062E070E0CE0145960E947C42FC01C080A9
:101E6000D180E280F38061E070E0CE0145960E946F
:101E70007C42FC012081318142815381AD962CAF9F
:101E80003DAF4EAF5FAFAD9760E070E0CE014596DD
:101E90000E947C42FC0140815181628173817F926A
:101EA0006F925F924F92AD960CAD1DAD2EAD3FADD2
:101EB000AD97CE0101960E944142E12C00E010E076
:101EC0009801A9964CAD5DAD6EAD7FADA997CE01E1
:101ED00001960E943E7264E070E0CE0189960E94F5
:101EE0007C42FC01108101813280238063E070E03C
:101EF000CE0189960E947C42FC0180809180A28064
:101F0000B38062E070E0CE0145960E947C42FC0105
:101F1000C080D180E280F38061E070E0CE01459620
:101F20000E947C42FC01408051806280738060E0AE
:101F300070E0CE0145960E947C42FC0140815181B7
:101F4000628173812F923F920F931F9393018201BD
:101F5000CE0101960E94414260E0CE0101960E94AE
:101F60008D706091731770917417809175179091AF
:101F700076170E9428D720E030E040E857E30E941F
:101F80002CD820916F173091701740917117509194
:101F900072170E942CD80E94F5D6A9966CAF7DAF1F
:101FA0008EAF9FAFA997CE018F5A9F4F0E94167197
:101FB00084E1FE01EF5AFF4FDE01559601900D922C
:101FC0008A95E1F760E070E0CE0145960E947C4280
:101FD000FC01C080D180E280F38060E070E0CE013F
:101FE00089960E947C42FC0180819181A281B3810B
:101FF000A7019601281B390B4A0B5B0BCA01B901DB
:102000000E9428D720911D1730911E1740911F174D
:10201000509120170E9453D62B013C0161E070E0E3
:10202000CE0145960E947C42FC01C080D180E280B6
:10203000F38061E070E0CE0189960E947C42FC0151
:1020400080819181A281B381A7019601281B390B60
:102050004A0B5B0BCA01B9010E9428D72091461791
:102060003091471740914817509149170E9453D615
:102070004B015C0162E070E0CE0145960E947C421B
:10208000FC01C080D180E280F38062E070E0CE018C
:1020900089960E947C42FC0180819181A281B3815A
:1020A000A7019601281B390B4A0B5B0BCA01B9012A
:1020B0000E9428D720916F173091701740917117A7
:1020C000509172170E9453D66B017C01A3019201BB
:1020D000C301B2010E942CD82B013C01A50194013F
:1020E000C501B4010E942CD89B01AC01C301B2010F
:1020F0000E94D8D54B015C01A7019601C701B6012A
:102100000E942CD89B01AC01C501B4010E94D8D516
:102110000E9493D84B015C010FB6F894DEBF0FBE4E
:10212000CDBF8091D007882329F180914B08811180
:102130000AC064E070E0CE0189960E947C426C0186
:1021400063E070E009C063E070E0CE0189960E9410
:102150007C426C0164E070E0CE0189960E947C4272
:10216000FC0180819181A281B381F60180839183FA
:10217000A283B383709064181092641880917317CF
:1021800090917417A0917517B091761726E0880F7B
:10219000991FAA1FBB1F2A95D1F76D01FF24D7FCF9
:1021A000F094EF2C8501740120E0A9964CAD5DAD53
:1021B0006EAD7FADA997CE0189960E94667370922D
:1021C0006418C459DF4F0FB6F894DEBF0FBECDBF01
:1021D000DF91CF911F910F91FF90EF90DF90CF9003
:1021E000BF90AF909F908F907F906F905F904F9037
:1021F0003F902F900895EF92FF920F931F93CF93EC
:10220000DF9398E0899FF0011124E85EF74FE080AA
:10221000F18002811381D481C581B681E781970164
:10222000A8016D2F7C2F8B2F9E2FA0E00E9421DB19
:1022300044F40E9491DA79018A01D62FC72FB82F72
:10224000E92F9701A8016D2F7C2F8B2F9E2FDF91F7
:10225000CF911F910F91FF90EF9008956F927F9211
:102260008F929F92AF92BF92CF92DF92EF92FF92A6
:102270000F931F93CF93DF93C82F0E94FB10590138
:102280006A017B013C01A0E00E9421DB09F00CF413
:1022900049C088E0C89FE00111244E0188E4881AF3
:1022A0008EEF980A00E010E020E030E040E050E0DF
:1022B00060E070E0C4010E9480AB83010E94FADA02
:1022C00089019A01AB01BC01C4010E94BCABDE01D3
:1022D000A85FB74FFE01E85EF74F80818C93818144
:1022E00011968C931197828112968C931297838109
:1022F00013968C931397848114968C9314978581ED
:1023000015968C931597868116968C9316978781D0
:1023100017968C9310821182128213821482158276
:1023200016821782DF91CF911F910F91FF90EF904E
:10233000DF90CF90BF90AF909F908F907F906F90E5
:10234000089580E00E942E1181E00C942E11EF92EE
:10235000FF920F931F93CF93DF9398E0899FF00133
:102360001124E85FF74FE080F18002811381D4816E
:10237000C581B681E7819701A8016D2F7C2F8B2F36
:102380009E2FA0E00E9421DB44F40E9491DA7901A3
:102390008A01D62FC72FB82FE92F9701A8016D2FDB
:1023A0007C2F8B2F9E2FDF91CF911F910F91FF904C
:1023B000EF900895CF92DF92EF92FF9280E00E941B
:1023C000A711E42F43E0B9018E2F952F0E947D6E57
:1023D0006B017C0181E00E94A711E42F44E0B90168
:1023E0008E2F952F0E947D6E9B01AC01C701B60117
:1023F0000E94D8D56B017C0120E030E0A9010E9449
:102400004FD681111DC00E94FB10E42F43E0B9019B
:102410008E2F952F0E947D6E6B017C0181E00E94C2
:10242000FB10E42F44E0B9018E2F952F0E947D6EA2
:102430009B01AC01C701B6010E94D8D56B017C019C
:10244000C701B601FF90EF90DF90CF9008950F93F2
:102450001F93CF93DF93082FC4EFD7E010E088815C
:1024600081110EC0812F0E9413768883002321F0F2
:10247000812F0E941F7604C064E1812F0E9408769C
:102480001F5F2196153059F7DF91CF911F910F9162
:1024900008951F93CF93DF93C4EFD7E010E06881D6
:1024A000812F0E94087619921F5F1530C1F7DF91C6
:1024B000CF911F9108950F931F93CF93DF93609156
:1024C000F90786E192E00E94B9DB8FE59AEE019769
:1024D000F1F700C000006091FA0787E192E00E94E6
:1024E000B9DBEFE5FAEE3197F1F700C0000060913B
:1024F000FB0788E192E00E94B9DB8FE59AEE019735
:10250000F1F700C000006091FC0789E192E00E94B1
:10251000B9DBEFE5FAEE3197F1F700C0000060910A
:10252000FD0784E192E00E94B9DB8FE59AEE019706
:10253000F1F700C000006091FE0785E192E00E9483
:10254000B9DBEFE5FAEE3197F1F700C0000007E4E0
:1025500018E0C4E9D2E0F80161918F01CE010E9438
:10256000B9DB8FE59AEE0197F1F700C000002196E4
:10257000C83992E0D90779F7609101028AE992E0BF
:102580000E94B9DB60914B088FEA92E00E94B9DBB0
:10259000EFE5FAEE3197F1F700C00000DF91CF913F
:1025A0001F910F9108950F931F93CF93DF9304EF23
:1025B00017E0CEE6D2E0F80161918F01CE010E94D2
:1025C000B9DB8FE59AEE0197F1F700C00000219684
:1025D000C33792E0D90779F7DF91CF911F910F911F
:1025E00008950F931F93CF93DF9304EF17E0CEE688
:1025F000D2E0CE010E94A1DBF80181938F018FE32D
:102600009CE90197F1F700C000002196C33792E0E2
:10261000D90779F7DF91CF911F910F910895EF922C
:10262000FF920F931F93CF93DF9300D000D0CDB7CD
:10263000DEB786E192E00E94A1DB89838FE39CE90B
:102640000197F1F700C0000087E192E00E94A1DB52
:102650008A83EFE3FCE93197F1F700C000008A813B
:1026600090E0982F88272981822B9093FA078093F6
:10267000F90788E192E00E94A1DB89838FE39CE95E
:102680000197F1F700C0000089E192E00E94A1DB10
:102690008A83EFE3FCE93197F1F700C000008A81FB
:1026A00090E0982F88272981822B9093FC078093B4
:1026B000FB0784E192E00E94A1DB182F8FE39CE9E5
:1026C0000197F1F700C0000085E192E00E94A1DBD4
:1026D000EFE3FCE93197F1F700C00000212F30E073
:1026E000382B3093FE072093FD078CE490E00E9486
:1026F000A1DB811104C01092FE071092FD0782E455
:1027000090E00E94A1DB813021F41092FC0710922E
:10271000FB0719821A82CE0101967C0104E912E0BE
:10272000C8010E94A1DBF70181937F018FE39CE93F
:102730000197F1F700C000000F5F1F4F083992E0CA
:10274000190771F78A8190E0982F88272981822BB9
:10275000AA2797FDA095BA2F809347089093480821
:10276000A0934908B0934A088AE992E00E94A1DB4D
:10277000809301028FEA92E00E94A1DB80934B08D4
:102780000F900F900F900F90DF91CF911F910F91AD
:10279000FF90EF9008957F928F929F92AF92BF9299
:1027A000CF92DF92EF92FF920F931F93CF93DF931D
:1027B00000D000D0CDB7DEB78FEA0E949CA07AE1AE
:1027C000E72E72E0F72E00E010E04E0185E0880E63
:1027D000911CB8018DE298E00E947C42FC0183814B
:1027E0008C83B8018DE298E00E947C42FC018281DA
:1027F0008B83B8018DE298E00E947C42FC018181CC
:102800008A83B8018DE298E00E947C42FC018081BD
:102810008983CE0101966C015701F60171906F0119
:10282000672DC5010E94B9DB872D0E949CA08FE512
:102830009AEE0197F1F700C000009FEFA91AB90ABC
:10284000C814D90451F70F5F1F4FE4E0EE0EF11CDE
:102850000530110509F0BDCF0AE112E0C8010E9460
:10286000A1DBEFE5FAEE3197F1F700C000000E941E
:102870009CA00F5F1F4F0E32F2E01F0779F78AEF1F
:102880000F900F900F900F90DF91CF911F910F91AC
:10289000FF90EF90DF90CF90BF90AF909F908F9080
:1028A0007F900C949CA07F928F929F92AF92BF9248
:1028B000CF92DF92EF92FF920F931F93CF93DF930C
:1028C000CDB7DEB768970FB6F894DEBF0FBECDBFA9
:1028D000CE0101960E9416718BEA0E949CA0E4E74B
:1028E000EE2EE2E0FE2E00E010E04E0189E1880EBF
:1028F000911CB801CE0101960E947C42FC018381AB
:10290000888FB801CE0101960E947C42FC01828131
:102910008F8BB801CE0101960E947C42FC0181811F
:102920008E8BB801CE0101960E947C42FC01808111
:102930008D8BCE0145966C015701F60171906F01A8
:10294000672DC5010E94B9DB8FE59AEE0197F1F77B
:1029500000C00000872D0E949CA09FEFA91AB90A11
:10296000C814D90451F70F5F1F4FE4E0EE0EF11CBD
:102970000530110509F0BDCF04E712E0C8010E943F
:10298000A1DBEFE5FAEE3197F1F700C000000E94FD
:102990009CA00F5F1F4F0838F2E01F0779F78AEB02
:1029A0000E949CA068960FB6F894DEBF0FBECDBF04
:1029B000DF91CF911F910F91FF90EF90DF90CF901B
:1029C000BF90AF909F908F907F9008950F931F932B
:1029D000CF93DF93CDB7DEB76A970FB6F894DEBF1B
:1029E0000FBECDBF80914508853409F40BC108F5B1
:1029F000813409F454C030F4803209F4EDC18034DC
:102A000079F11AC2833409F454C008F05EC0CE01D3
:102A100007960E94167184E1FE013796ADE2B8E098
:102A200001900D928A95E1F781E00E94E90B83E421
:102A300049C0843809F496C150F4813809F474C14E
:102A4000833809F480C1803809F0F6C10CC186389A
:102A500009F4A5C108F499C1873809F4A2C1ECC1F1
:102A60000E94E634853029F00E94E634843009F073
:102A7000CAC19091921F8BE0989F802D1124895F8D
:102A80008093D50760E070E084ED97E00E945A0AD9
:102A900081E48093450881E00E942712CDC1809196
:102AA000A60E9091A50E891B8F7009F0C5C182E416
:102AB00009C08091A60E9091A50E891B8F7009F018
:102AC000BBC184E480934508B7C181E00E94030D37
:102AD00085E4809345080E94E634853039F00E94F1
:102AE000E63411E0843019F010E001C011E045E057
:102AF00063ED7BE1CE0101960E94299DCE010196F6
:102B00000E947B9D8093F30760E087ED9AE00E942E
:102B1000593F8091400D882329F08091E90C9091D4
:102B2000EA0C04C08091170D9091180D9093FA074C
:102B30008093F9078091FC0D882329F08091A50DE1
:102B40009091A60D04C08091D30D9091D40D9093D7
:102B5000FC078093FB078091A00C882329F08091CB
:102B6000490C90914A0C04C08091770C9091780C9C
:102B70009093FE078093FD0780914208811146C122
:102B800060E08EEF9FE00E94C1AA882309F43EC155
:102B900080914208882351F021E040E060E080E02D
:102BA0000E946D7D60E088EF0E94DD758091430892
:102BB00090914408009791F08D57924009F43CC1E0
:102BC0008091590A882361F01092DE079091921F3C
:102BD0008BE0989F802D1124865F0BC01111F4CFDC
:102BE0001092DE079091921F8BE0989F802D112408
:102BF000885F8093DF0760E070E08EED97E00E94D1
:102C00005A0A1AC18091A60E9091A50E891B8F7049
:102C100009F012C10E94D3120E9449120E94CB13E4
:102C20000E9453140E945B1280914E0890914F08AD
:102C30000E94A08E8091590A882311F080E201C081
:102C400081E0809345080E94830A0E94E634853023
:102C500009F4F2C00E94E634843009F4EDC087E044
:102C60000E94FFA8E9C080E00E9427128091FD0722
:102C70009091FE07181619066CF460E08FE19CE055
:102C80000E946C986091FD077091FE078FE19CE0B7
:102C90000E9406970091CC071091CD0701151105F0
:102CA00021F40091F9071091FA0710161106B4F4F7
:102CB00060E08FEB9CE00E946C98B8018FEB9CE089
:102CC0000E9406978091FD079091FE07181619063D
:102CD0002CF461E08FEB9CE00E946C980091CE0791
:102CE0001091CF070115110521F40091FB071091F8
:102CF000FC0710161106B4F460E08BE79DE00E941B
:102D00006C98B8018BE79DE00E9406978091FD07C3
:102D10009091FE07181619062CF461E08BE79DE0F0
:102D20000E946C9881E8CECE8091FD079091FE07BD
:102D3000181619060CF06DC08FE19CE00E94DB971D
:102D4000811167C079C08091F9079091FA07181630
:102D500019060CF060C08FEB9CE00E94DB9781119C
:102D60005AC06AC081E00E94271280E00E94030DD1
:102D700085E8809345081092DE079091921F8BE0C2
:102D8000989F802D1124875F34CF8091A60E90915B
:102D9000A50E891B8F7009F04FC086E893CE87E897
:102DA00091CE8091A60E9091A50E891B8F7009F08F
:102DB00043C06091F30787ED9AE00E94593F0E945B
:102DC00049120E94830A10924508109244081092FA
:102DD00043081092580A30C00E94830A6091430849
:102DE0007091440821E040E087ED9AE00E94793E2E
:102DF0000E94CE4310924408109243081092590A40
:102E00001092450819C01092D40733CE0E94450A8B
:102E1000BFCE83E857CE8091FB079091FC07181630
:102E2000190634F48BE79DE00E94DB97882321F09C
:102E30000E94491284E846CE6A960FB6F894DEBF27
:102E40000FBECDBFDF91CF911F910F9108958F924B
:102E50009F92AF92BF92CF92DF92EF92FF920F9329
:102E60001F93CF93DF93CDB7DEB768970FB6F89473
:102E7000DEBF0FBECDBFCE0101960E94404289E960
:102E80000E949CA0A4E7EA2EA2E0FA2E00E010E047
:102E90006E0189E1C80ED11CCE0145965C01470147
:102EA000C4010E94A1DBF50181935F01EFE3FCE91E
:102EB0003197F1F700C000000E949CA0FFEF8F1A2D
:102EC0009F0AAC14BD0461F74E8950E0B42EAA24C9
:102ED0008D89A82AB801CE0101960E947C42A501E5
:102EE00060E070E0FC0140835183628373830F5F75
:102EF0001F4FF4E0EF0EF11C0530110569F662E09A
:102F000070E0CE0101960E947C4240EC51E562E007
:102F100070E0FC01408351836283738300E010E022
:102F2000B801CE0101960E947C42FC0183810E947F
:102F30009CA0B801CE0101960E947C42FC018281D6
:102F40000E949CA0B801CE0101960E947C42FC0127
:102F500081810E949CA0B801CE0101960E947C4212
:102F6000FC0180810E949CA00F5F1F4F053011055E
:102F7000B9F660E0CE0101960E948D7088E80E944B
:102F80009CA068960FB6F894DEBF0FBECDBFDF9150
:102F9000CF911F910F91FF90EF90DF90CF90BF9056
:102FA000AF909F908F9008954F925F926F927F9213
:102FB0008F929F92AF92BF92CF92DF92EF92FF9249
:102FC0000F931F93CF93DF9300D000D0CDB7DEB720
:102FD00087E70E949CA03AE1C32E32E0D32E00E0A6
:102FE00010E05E0185E0A80EB11CCE0101967C01C7
:102FF0003601C3010E94A1DBF70181937F01EFE35A
:10300000FCE93197F1F700C000000E949CA0FFEF9F
:103010006F1A7F0AEA14FB0461F74C8150E0942E8A
:1030200088248B81882AEA80F12CFE2CEE24898169
:10303000E82A80E00E949CA0882D0E949CA080E04D
:103040000E949CA08E2D0E949CA0B8018DE298E069
:103050000E947C42A40160E070E0BA015527442739
:103060002701612C712C4429552966297729FC01F7
:1030700040835183628373830F5F1F4FF4E0CF0E51
:10308000D11C0530110509F0B0CF00E010E0B80107
:103090008DE298E00E947C42FC0183810E949CA00A
:1030A000B8018DE298E00E947C42FC0182810E947E
:1030B0009CA0B8018DE298E00E947C42FC018181D5
:1030C0000E949CA0B8018DE298E00E947C42FC0125
:1030D00080810E949CA00F5F1F4F05301105B9F63B
:1030E00083E30F900F900F900F90DF91CF911F917E
:1030F0000F91FF90EF90DF90CF90BF90AF909F9097
:103100008F907F906F905F904F900C949CA0FC01EB
:10311000CB0124813581820F931F608171810E94D0
:10312000F4D826813781820F931F08951F93CF9380
:10313000DF93EC01162F2A813B8188819981281722
:10314000390768F46A817B81CE010E948718FC01EF
:1031500010838A819B8101969B838A8302C081E0D0
:103160008887DF91CF911F910895682F8CE498E0B4
:103170000C949618CF93DF93EC018A819B81892B65
:1031800021F481E0898780E016C060E070E0CE0124
:103190000E948718FC018C819D810196688179814C
:1031A0000E94F4D89D838C832A813B812150310970
:1031B0003B832A838081DF91CF9108958CE498E04E
:1031C0000C94BA18CF938CE498E00E94BA18C82FD8
:1031D0008CE498E00E94BA18982F8C2FCF91089514
:1031E0001F93CF93DF9300D0CDB7DEB78CE498E088
:1031F0000E94BA18682F8CE498E06A830E94BA187B
:10320000782F8CE498E079830E94BA18182F8CE408
:1032100098E00E94BA18982F6A817981812F0F90C7
:103220000F90DF91CF911F9108951F93CF93DF935C
:10323000C82F61E070E08CE498E00E948718FC01E0
:103240001081CF3F09F01C2F62E070E08CE498E021
:103250000E948718FC0180818D3009F484C048F4F5
:103260008C3008F06DC0843008F05EC0833069F0A7
:10327000BDC0873109F45AC020F4803108F454C02D
:10328000B5C08F3109F47DC0B1C064E070E08CE45A
:1032900098E00E948718FC01C081D0E065E070E0F2
:1032A0008CE498E00E948718FC01808190E0982FC0
:1032B0008827C80FD91F209711F40E94A11111303F
:1032C00019F480E69DE002C084EA9CE0BE014B96C2
:1032D0000E9406978FE19CE00E940A98882309F4D7
:1032E0008AC08FE19CE00E942498811184C0113033
:1032F00019F480E69DE002C084EA9CE04B960E94AF
:103300002498811178C081E080934608113009F437
:103310006FC084EA9CE061E04B960E946C988091BB
:10332000360E8E7F8093360E11E06EC00E94B90A71
:1033300091E0811190E060E0892F0E943E35F4CF4A
:1033400064E070E08CE498E00E948718FC016081E2
:103350006170113019F480E69DE002C084EA9CE0BF
:103360000E94217CE1CF64E070E08CE498E00E9450
:103370008718FC016081617087ED9AE00E94593FD7
:10338000D3CF0E94F8A6182F882371F264E070E072
:103390008CE498E00E948718FC01C081D0E065E0D1
:1033A00070E08CE498E00E948718FC01608170E076
:1033B000762F66276C0F7D1F8FE19CE00E94069799
:1033C00061E087ED9AE00E94543F8FE19CE00E940B
:1033D000249891E0982790934608892F0E944B41AA
:1033E0008091360E8E7F8093360E0EC010E00CC09A
:1033F00080E69DE090CF113021F084EA9CE060E00F
:103400008BCF80E69DE0FBCF812FDF91CF911F9185
:1034100008952F923F924F925F926F927F928F9278
:103420009F92AF92BF92CF92DF92EF92FF920F9353
:103430001F93CF93DF93CDB7DEB7C055D1090FB639
:10344000F894DEBF0FBECDBF0E946543882309F408
:1034500056C080914E0890914F0820914C083091B1
:103460004D082817390729F00E94BC4381110C949C
:10347000272A8091470890914808A0914908B09167
:103480004A080A97A105B105C0F044E063EE7BE16C
:10349000CE0101960E94299D61E0CE0101960E9415
:1034A000589D44E063EE7BE1CE0101960E94299D88
:1034B00060E0CE0101960E946B9D8091470890913B
:1034C0004808A0914908B0914A080297A105B105A2
:1034D00010F00C9438298091470890914808A091E9
:1034E0004908B0914A080F97A105B10510F00C9456
:1034F00083290E94BC43882311F40C94F7290E946D
:1035000070A98823B1F080914E0890914F082091C6
:103510004C0830914D082817390729F00E947EA9E0
:1035200081110C943C2A0E947EA9882311F40C94EA
:10353000302A80910B0290E0FC013197ED31F105CA
:1035400010F00C94B322EE58FF4F0C945DD90E94FA
:1035500070A981110C94B3228091E5078130C1F5E7
:103560001092DE079091921F8BE0989F802D11247E
:103570008093DF0764ED77E08EED97E00E945A0AB2
:1035800068E082E092E00E948BA26AE084ED97E01E
:103590000E948BA28AE58093020285EA809303024F
:1035A00085E08093040282E880930502109206026F
:1035B0008BEB80930702109208021092090268E0D8
:1035C00082E092E00E948BA283E00E942A35E8C04C
:1035D000823009F06DC01092DE079091921F8BE04F
:1035E000989F802D11248F5F8093DF0764ED77E033
:1035F0008EED97E00E945A0A8AE58093020285EADE
:103600008093030285E08093040282E880930502A0
:10361000109206028BEB809307021092080281E061
:103620008093090268E082E092E00E948BA2BE01D2
:103630006B5E7F4FCE0101960E94AA7160E070E040
:10364000CE0101960E947C42DC014D915D916D910D
:103650007C914153524461097109FC0140835183BB
:103660006283738361E070E0CE0101960E947C4228
:10367000DC014D915D916D917C91465F5F4F6F4F85
:103680007F4FFC0140835183628373838091E30702
:103690009091E40701969093E4078093E30730E567
:1036A000C32E36E4D32EE12CF12C04E313E46FC0D7
:1036B000833009F075C01092DE079091921F8BE065
:1036C000989F802D11248E5F8093DF0764ED77E053
:1036D0008EED97E00E945A0A8AE58093020285EAFD
:1036E0008093030285E08093040282E880930502C0
:1036F000109206028BEB809307021092080282E080
:103700008093090268E082E092E00E948BA2BE01F1
:103710006B5E7F4FCE0101960E94AA7161E070E05E
:10372000CE0101960E947C42DC014D915D916D912C
:103730007C914C58594461097109FC0140835183C3
:103740006283738360E070E0CE0101960E947C4248
:10375000DC014D915D916D917C91475E5E4D6F4FA7
:103760007F4FFC0140835183628373838091E30721
:103770009091E40701969093E4078093E30790E526
:10378000C92E96E4D92EE12CF12C0BE513E428E1A7
:1037900040E556E460E070E0CE0101960E94667359
:1037A00082E080930B02DFC640E251EA67E070E0FE
:1037B0008CEB97E00E94B49F8CEB97E00E94D89F1F
:1037C0000E9470A98111CFC68091A60E9091A50E7E
:1037D000891B8F7011F40C94452AC5C6BE016B5E1F
:1037E0007F4FCE0101960E94AA7162E070E0CE0187
:1037F00001960E947C42DC014D915D916D917C911E
:103800004451510961097109FC014083518362836C
:1038100073838091E3079091E40701969093E40706
:103820008093E3070AE6C02ED12C1DECE12E1CECA0
:10383000F12E0CE41DE328E14AE952E060E070E07B
:10384000CE0101960E94667384E080930B028BC6C2
:103850008091A60E9091A50E891B8F7009F083C6EA
:1038600085E080930B027FC646E063ED7BE1CE01ED
:1038700001960E94299DCE0101960E947B9D811197
:1038800012C08091F1079091F2072091E3073091E7
:10389000E407820F931F9093F2078093F10786E06D
:1038A00080930B0260C683E080930B025CC6BE016E
:1038B0006B5E7F4FCE0101960E94AA7162E070E0BC
:1038C000CE0101960E947C42FC012091E3073091D9
:1038D000E40784E1829FA001839F500D1124808121
:1038E0009181A281B381840F951FA11DB11D808399
:1038F0009183A283B383B90180E090E00E9426D730
:103900002DEC3CEC4CE45DE30E942CD818E2C12E77
:1039100013E2D12E7B018C0128E148E253E260E002
:1039200070E0CE0101960E9466731092E407109237
:10393000E30787E080930B0216C68091A60E909154
:10394000A50E891B8F7011F00C94842A8091E307D7
:103950009091E407892B11F40C94972A0C94842AF3
:103960004091ED075091EE072091EF073091F0075D
:103970008091EB079091EC072417350708F44BC0B2
:103980008217930708F447C0241B350B841B950B43
:103990002530310540F4059780F480E180930B02D7
:1039A0001092E807E0C58530910570F489E08093B6
:1039B0000B0282E08093E807D6C58BE080930B0270
:1039C00083E08093E807CFC54091E207411103C02F
:1039D00042E04093E2074091E207423051F48217FF
:1039E000930770F489E080930B0282E08093E807EC
:1039F000BAC5413009F0B7C58091E807823039F483
:103A00008BE080930B0283E08093E807ACC58330A2
:103A100009F0A9C5E7CF8217930708F446C04817F5
:103A2000590708F48DC0421B530B821B930B453082
:103A3000510550F4059708F4B0CF8BE080930B024A
:103A400084E08093E8078FC58530910538F48AE0DB
:103A500080930B0285E08093E80785C52091E207FB
:103A6000211103C022E02093E2072091E2072230D7
:103A700051F48417950770F48AE080930B0285E077
:103A80008093E80770C5213009F06DC58091E80783
:103A9000853039F48BE080930B0284E08093E80753
:103AA00062C5843009F05FC5E7CF4817590708F4AD
:103AB00047C02417350708F443C0481B590B281B7F
:103AC000390B4530510558F42530310508F465CFE0
:103AD00089E080930B0287E08093E80744C5253096
:103AE000310538F48AE080930B0286E08093E80782
:103AF0003AC58091E207811103C082E08093E2071A
:103B00008091E207823051F42417350770F48AE07F
:103B100080930B0286E08093E80725C5813009F089
:103B200022C58091E807863039F489E080930B0242
:103B300087E08093E80717C5873009F014C5E7CF01
:103B40004217530708F447C08417950710F40C94E4
:103B5000D32C421B530B821B930B4530510550F461
:103B6000059708F41ACF8BE080930B0289E08093CD
:103B7000E807F9C48530910538F48AE080930B0298
:103B800088E08093E807EFC42091E207211103C089
:103B900022E02093E2072091E207223051F48417BB
:103BA000950770F48AE080930B0288E08093E80721
:103BB000DAC4213009F0D7C48091E807883039F49D
:103BC0008BE080930B0289E08093E807CCC48930B6
:103BD00009F0C9C4E7CF8417950708F4C4C42817AF
:103BE000390708F4C0C4841B950B241B350B8530A2
:103BF000910558F42530310508F4CFCE89E0809343
:103C00000B028DE08093E807AEC42530310538F40F
:103C10008BE080930B028CE08093E807A4C4409172
:103C2000E207411103C042E04093E2074091E207FE
:103C3000423051F42817390770F48BE080930B025F
:103C40008CE08093E8078FC4413009F08CC48091E8
:103C5000E8078C3039F489E080930B028DE0809383
:103C6000E80781C48D3009F07EC4E7CF86E00E946A
:103C70002A358CE080930B0276C440E452E46FE076
:103C800070E08CEB97E00E94B49F8CEB97E00E9471
:103C9000D89F0E9470A9811166C48091A60E909150
:103CA000A50E891B8F7011F40C944E2B5CC487E019
:103CB0000E942A358AE180930B0255C40E9470A9A4
:103CC000811151C48091A60E9091A50E891B8F7011
:103CD00011F40C94C72B47C48091A60E9091A50EA9
:103CE000891B8F7009F03FC4BE016B5E7F4FCE0110
:103CF00001960E94AA7160E070E0CE0101960E94D8
:103D00007C42DC014D915D916D917C91425A5F4FF7
:103D10006F4F7F4FFC01408351836283738361E067
:103D200070E0CE0101960E947C42DC014D915D91D4
:103D30006D917C91465F5F4F6F4F7F4FFC014083D9
:103D4000518362837383F0EECF2EFEE2DF2EE12CEF
:103D5000F12C00E81FE328E148E253E260E070E064
:103D6000CE0101960E9466738DE080930B02FBC327
:103D700040E452E46FE070E08CEB97E00E94B49F67
:103D80008CEB97E00E94D89F0E9470A98111EBC331
:103D90008091A60E9091A50E891B8F7011F40C9442
:103DA0000D2CE1C388E00E942A358BE180930B0241
:103DB000DAC30E9470A98111D6C38091A60E90919A
:103DC000A50E891B8F7011F40C94862CCCC38091A6
:103DD000A60E9091A50E891B8F7009F0C4C3BE0179
:103DE0006B5E7F4FCE0101960E94AA7160E070E089
:103DF000CE0101960E947C42DC014D915D916D9156
:103E00007C91425A5F4F6F4F7F4FFC01408351833B
:103E10006283738360EEC62E6EE2D62EE12CF12C07
:103E200000E81FE328E140EE5EE260E070E0CE01D2
:103E300001960E9466738EE080930B0294C380917A
:103E4000A60E9091A50E891B8F7009F08CC3BE0140
:103E50006B5E7F4FCE0101960E94AA718091E807A8
:103E6000843049F018F4833091F048C0893019F05B
:103E70008C3069F043C062E070E0CE0101960E9490
:103E80007C42FC012091EF073091F0070BC062E00B
:103E900070E0CE0101960E947C42FC012091ED076A
:103EA0003091EE0784E1829FA001839F500D112481
:103EB00080819181A281B381841B950BA109B109F5
:103EC00080839183A283B383B90180E090E00E9454
:103ED00026D72DEC3CEC4CE45DE30E942CD858E254
:103EE000C52E53E2D52E7B018C0128E148E253E236
:103EF00060E070E0CE0101960E9466738FE08093CF
:103F00000B028AE58093020285EA8093030285E032
:103F10008093040282E880930502109206028BEBE4
:103F2000809307021092080284E08093090268E0FF
:103F300082E092E00E948BA216C38091E807823053
:103F400011F08D3029F48091EF079091F00734C083
:103F5000873011F08A3029F48091EF079091F007B3
:103F600011C0853011F0883029F48091ED079091CF
:103F7000EE0715C0863011F08B3049F48091ED07C3
:103F80009091EE072091EB073091EC0719C0893032
:103F900011F0843049F48091EB079091EC07209167
:103FA000EF073091F0070CC0833011F08C3071F4C2
:103FB0008091EB079091EC072091ED073091EE078F
:103FC000821B930B9093EA078093E9078091E9079E
:103FD0009091EA07959587959093EA078093E90772
:103FE0008A30910584F41092D40790E39093D5071A
:103FF0001092D6079EE29093D7071092D807805D63
:104000008093D9072FC0EAE0F0E0BF010E9408D9F1
:1040100040E3480F1092D4076A307105B4F0CB0129
:10402000BF010E9408D9605D6093D5071092D60742
:10403000805D8093D7071092D8078EE28093D907CE
:104040001092DA074093DB0711C020E3260F20937C
:10405000D5071092D6078EE28093D7071092D80723
:104060004093D9071092DA071092DB071092DE070F
:104070009091921F1BE0919F902D11249B5F909334
:10408000DF0764ED77E08EED97E00E945A0A809199
:10409000A60E9091A50E891B8F7009F064C246E0B0
:1040A00063ED7BE1CE0101960E94299DCE01019630
:1040B0000E947B9D811157C21092DE078091921F52
:1040C000819F802D11248C5F8093DF071092D4078D
:1040D0001092D5071092D6071092D7071092D807E2
:1040E0001092D9071092DA071092DB0764ED77E09F
:1040F0008EED97E00E945A0A8AE58093020285EAD3
:104100008093030285E08093040292E89093050275
:10411000109206029BEB9093070210920802809384
:10412000090268E082E092E00E948BA285E00E9492
:10413000FFA8BE016B5E7F4FCE0101960E94AA715F
:104140008091E80790E0FC013297EC30F10508F02F
:104150004BC0E157FF4F62E070E0CE0101960C9436
:104160005DD90E947C42FC012091ED073091EE0761
:104170000FC00E947C42FC012091EB073091EC07BC
:1041800007C00E947C42FC012091EF073091F007AC
:1041900084E1829FA001839F500D11248081918131
:1041A000A281B381840F951FA11DB11D80839183CE
:1041B000A283B383B90180E090E00E9426D72DEC62
:1041C0003CEC4CE45DE30E942CD838E2C32E33E291
:1041D000D32E7B018C0128E148E253E260E070E0DD
:1041E000CE0101960E94667381E180930B02BBC1F0
:1041F0008091A60E9091A50E891B8F7009F0B3C116
:104200008091E20781110AC081E08093E507109256
:10421000E8071092E20780930B02A5C181508093BA
:10422000E207811108C081E08093E5071092E8075A
:1042300080930B0298C188E080930B0294C1109286
:10424000E5071092E8071092DE079091921F8BE02D
:10425000989F802D11248A5F8093DF071092D407E6
:104260001092D5071092D6071092D7071092D80750
:104270001092D9071092DA071092DB0764ED77E00D
:104280008EED97E00E945A0A8AE58093020285EA41
:104290008093030285E08093040282E88093050204
:1042A000109206028BEB809307021092080286E0C0
:1042B0008093090268E082E092E00E948BA2BE0136
:1042C0006B5E7F4FCE0101960E94AA7162E070E0A2
:1042D000CE0101960E947C42DC014D915D916D9171
:1042E0007C91405C504E6F4F7F4FFC014083518367
:1042F0006283738398E2C92E93E2D92EE12CF12CCC
:1043000000EA11E428E148E253E260E070E0CE0107
:1043100001960E94667324EF31E040E050E063E0D4
:1043200081E00E94447584E180930B021CC180915E
:10433000A60E9091A50E891B8F7009F014C1809173
:104340000A02811112C081E080930A0288E1809301
:104350000B0289E00E942A3506C18091A60E909139
:10436000A50E891B8F7009F0FEC081E00E94FFA896
:1043700087E180930B020E94830AF5C01092E50743
:104380001092E80780918007811108C040E853EC43
:1043900069EC71E080E897E00E94B49F80E897E0C4
:1043A0000E94D89F46E063ED7BE1882309F47CC03E
:1043B000CE0101960E94299DCE0101960E947B9D0F
:1043C000882309F43FC0BE016B5E7F4FCE0101968A
:1043D0000E94AA7162E070E0CE0101960E947C42C8
:1043E000DC014D915D916D917C914053584F6F4F21
:1043F0007F4FFC014083518362837383BAE6CB2EE7
:10440000D12CE12CF12C00EA10E428E144EF51E03A
:1044100060E070E0CE0101960E94667324EF31E007
:1044200040E050E063E081E00E94447524EF31E019
:1044300040E050E064E080E00E94447585E18093B4
:104440000B0291C083E00E94FFA8BE016B5E7F4F0C
:10445000CE0101960E94AA7162E070E0CE01019641
:104460000E947C42DC014D915D916D917C914053A5
:10447000584F6F4F7F4FFC0140835183628373839A
:10448000FAE6CF2ED12CE12CF12C00EA10E428E141
:1044900044EF51E060E070E0CE0101960E94667347
:1044A00086E180930B025FC0CE0101960E94299D98
:1044B000CE0101960E947B9D811155C083E00E9430
:1044C000FFA8BE016B5E7F4FCE0101960E94AA71CC
:1044D00062E070E0CE0101960E947C42DC014D91C9
:1044E0005D916D917C914053584F6F4F7F4FFC0110
:1044F00040835183628373837AE6C72ED12CE12CEB
:10450000F12C00EA10E428E144EF51E060E070E0B3
:10451000CE0101960E94667386E180930B0223C050
:104520008091A60E9091A50E891B8F70E1F481E019
:1045300080930B028093E5071092E6071092F20732
:104540001092F1071092E4071092E30780E897E0D9
:104550000E9404A008C080E00E94FFA887E1809329
:104560000B020E94830A80914608882359F08FE14C
:104570009CE00E94DB97882329F080E00E944B4159
:10458000109246088091290890912A08A0912B0842
:10459000B0912C08892B8A2B8B2B19F1809128083C
:1045A00081111FC0CE0101960E94167162E070E079
:1045B000CE0101960E947542DC014D915D916D9195
:1045C0007C918091290890912A08A0912B08B091A4
:1045D0002C08481759076A077B071CF481E0809371
:1045E00028088091290890912A08A0912B08B09161
:1045F0002C08892B8A2B8B2B79F180912808882312
:1046000059F10E94B90A811127C0CE0101960E947A
:10461000167162E070E0CE0101960E947542FC01C5
:1046200040815181628173818091290890912A088B
:10463000A0912B08B0912C08481759076A077B07EF
:104640005CF060E070E0CB010E94D10A60E081E0A4
:104650000E943E350C945A3210914508123020F0D9
:104660000E94E6140C945A32113011F580914208E0
:1046700081110C945A328091410881110C945A3264
:1046800081EA9BE00E94D89F882311F40C945A324F
:10469000109342080E94450A21E040E060E080E07B
:1046A0000E946D7D60E088EF0E94DD750C945A32A7
:1046B0008091CB07833071F40E94FC6E882341F017
:1046C0008DEA97E00E94D89F882321F00E94C87944
:1046D0001092CB078091580A8823E1F08091570A05
:1046E0008823C1F08091CB078330A1F080914508E9
:1046F000811110C00E94B90A81110AC08CE692E0B3
:10470000909344088093430861E081E00E943E3525
:104710001092580A8091CB07813031F40E94FC6ED0
:10472000811102C01092CB078091CB07823039F4FF
:104730008CEB97E00E94D89F81111092CB0780915B
:10474000CB07843009F054C08EE997E00E94D89FCF
:10475000882361F082E99FE10E94599A20E040E0BD
:10476000BC0187ED9AE00E94793E40C080914B08E1
:10477000813019F480E69DE002C084EA9CE04B960B
:104780000E940A98811113C08091D007882371F18B
:1047900080914B08882319F084EA9CE002C080E6EF
:1047A0009DE04B960E940A98811122C01FC0809103
:1047B0004B08813019F480E69DE002C084EA9CE059
:1047C0004B960E94DB97882399F08091D00788232D
:1047D00069F080914B08882319F084EA9CE002C0BC
:1047E00080E69DE04B960E94DB9781111092CB07EB
:1047F0008091CB07853011F58EE997E00E94D89F14
:10480000882369F082E99FE10E94639A20E040E0FA
:10481000BC0187ED9AE00E94793E0C94CB2C8FE18D
:104820009CE00E940A98882311F40C94CB2C8FE111
:104830009CE00E94DB9781110C94CB2C8091CB07DC
:10484000863089F58FE897E00E94D89F882391F001
:1048500080917E0781FF06C060E087ED9AE00E94AC
:104860005C4121C01092CB078091360E8F7E8093E1
:10487000360E19C086EE9BE00E9449AE882399F05F
:1048800080917E0782FF04C086EE9BE00E94D1AC3F
:104890000E944A418091360E8F7E8093360E0E9490
:1048A000527E1092CB078091CB078111C4C48091B6
:1048B0004E0890914F08892B09F4BDC487ED9AE00A
:1048C0000E94823E60E070E08CE498E00E948718CD
:1048D000DC011C911B3811F40C94C52F1E3811F407
:1048E0000C94222D1B3911F40C94A32E193811F4B9
:1048F0000C94CE31163811F40C94A8311C3811F4F4
:104900000C9444310DE7010F1C3909F4E0C0103953
:1049100009F4DDC0023008F4DAC0183809F4D7C051
:10492000143941F480914E0890914F08059708F48E
:1049300082C406C00E941D59811142C00C945A3293
:104940000E94DE180E94DE1880937F070E94E21802
:104950008C010E94DE1880937E0740914708509199
:1049600048086091490870914A084F5F5F4F6F4F48
:104970007F4F4093470850934808609349087093CD
:104980004A080115110571F0D80120E432E44FE026
:1049900050E00E9472D9AB01BC018FE897E00E9401
:1049A000B49F84C0CE0101960E94B09F8FE0FE01AB
:1049B0003196AFE8B7E001900D928A95E1F776C0A5
:1049C000153811F40C940D32153909F080C080911E
:1049D0004E0890914F08069708F42DC40E94DE18E7
:1049E0000E94DE18082F0E94DE18E82E0E94DE18B2
:1049F000F82E0E94DE18182F409147085091480861
:104A00006091490870914A084F5F5F4F6F4F7F4F29
:104A100040934708509348086093490870934A08A8
:104A200000FD04C080E39BE00E9494CEE092330B33
:104A3000F092340B6CE478E080E39BE00E9449CE76
:104A400001FFF9C3E091040CEE0FFF0BEE50F44FA1
:104A50002081318120533B4011F40C943B3260E3C0
:104A60007BE086EE9BE00E9449AC047011110C942F
:104A70004132002309F4DFC3112311F40C944B32AB
:104A8000A12FB0E020E432E44FE050E00E9472D960
:104A9000AB01BC018FE897E00E94B49F81E0809356
:104AA0007F0780917E07847080937E070E94494132
:104AB00060917F0786EE9BE00E9446AE8091360EA5
:104AC00080618093360E86E08093CB07B4C30230BA
:104AD00008F040C080914E0890914F08089708F464
:104AE000AAC30E94DE180E94DE18082F0E94F01848
:104AF0006B017C010E94E218DC0140914708509153
:104B000048086091490870914A084F5F5F4F6F4FA6
:104B10007F4F40934708509348086093490870932B
:104B20004A0883E08093CB0720E432E44FE050E072
:104B30000E9472D9AB01BC018DEA97E00E94B49F3C
:104B400081E0143809F080E0A7019601602F0E94EF
:104B5000447571C31738A1F480914E0890914F08A5
:104B6000069708F468C384E08093CB0781E08093C4
:104B7000570A0E94DE180E94DE1880934B0813C06B
:104B80001D38B9F580914E0890914F08069708F4AA
:104B900052C385E08093CB0781E08093570A0E943F
:104BA000DE180E94DE180E94E2180E94E21840916E
:104BB0004708509148086091490870914A084F5F32
:104BC0005F4F6F4F7F4F4093470850934808609363
:104BD000490870934A08DC0120E432E44FE050E0D9
:104BE0000E9472D9AB01BC018EE997E00E94B49F8C
:104BF00022C31F3809F053C080914E0890914F088E
:104C0000029708F418C30E94DE180E94DE18409133
:104C10004708509148086091490870914A084F5FD1
:104C20005F4F6F4F7F4F4093470850934808609302
:104C3000490870934A080EE010E0E12CF12CC82ED0
:104C4000D12CC6010E2C02C0959587950A94E2F7E7
:104C500080FF1BC0CE0101960E941671B701CE01E4
:104C600001960E947542DC014D915D916D917C91A0
:104C70004D8B5E8B6F8B788FF89444E050E0B801D9
:104C8000CE0145960E94AFDB7894BFEFEB1AFB0A8A
:104C90000C5F1F4FE5E0EE16F10499F6CCC2103917
:104CA00009F073C080914E0890914F08029708F464
:104CB000C2C20E94DE180E94DE18C82E409147082A
:104CC000509148086091490870914A084F5F5F4FC2
:104CD0006F4F7F4F409347085093480860934908AF
:104CE00070934A08CE0101960E9416710EE010E002
:104CF000E12CF12CD12CC6010E2C02C09595879584
:104D00000A94E2F780FF0CC0F894B701CE01019637
:104D10000E947C4244E050E0B8010E9491DB78940C
:104D2000FFEFEF1AFF0A0C5F1F4F25E0E216F104B8
:104D300011F763E070E0CE0101960E947C42FC0115
:104D400080819181A281B3818093000890930108B2
:104D5000A0930208B093030864E070E0CE010196CE
:104D60000E947C42FC0180819181A281B381809369
:104D7000040890930508A0930608B093070861E023
:104D8000CE0101960E948D7056C2113939F580917D
:104D90004E0890914F08039708F44DC20E94DE1808
:104DA0000E94DE18182F0E94DE184091470850918B
:104DB00048086091490870914A084F5F5F4F6F4FF4
:104DC0007F4F409347085093480860934908709379
:104DD0004A08682F812F0E9408762DC21239E9F502
:104DE00080914E0890914F08069708F424C20E94C3
:104DF000DE180E94DE18182F0E94DE182F968FAF43
:104E00002F970E94DE182E968FAF2E970E94DE18E5
:104E1000082F0E94DE18C0904708D0904808E09004
:104E20004908F0904A08FFEFCF1ADF0AEF0AFF0A9D
:104E3000C0924708D0924808E0924908F0924A0888
:104E4000802F0E94EE7E2E964FAD2E972F966FAD3F
:104E50002F97812F0E94F27EEEC1133951F5809178
:104E60004E0890914F08069708F4E5C10E94DE189D
:104E70000E94E2188C010E94E2187C010E94DE1858
:104E800040914708509148086091490870914A083C
:104E90004F5F5F4F6F4F7F4F4093470850934808D5
:104EA0006093490870934A08B701C8010E94A0A8FE
:104EB000C2C1183809F062C080914E0890914F0825
:104EC000049708F4B8C163E070E08CE498E00E94B5
:104ED000871820914E0830914F08DC01EC90F12C9E
:104EE000B4E0EB0EF11C2E153F0508F4A4C180912F
:104EF000D007882339F080910002882319F010929E
:104F0000000203C081E08093000262E070E08CE464
:104F100098E00E948718FC018081833059F062E09C
:104F200070E08CE498E00E948718DC018C918C3052
:104F300009F035C58091000281110DC061E070E07B
:104F40008CE498E00E948718FC0181E0908199230D
:104F500019F080E001C08FEF0E94151980910002C6
:104F6000882309F468C110E0812F90E08E159F0519
:104F700008F01AC10E94DE181F5FF6CF163971F4CF
:104F800080914E0890914F08039708F454C10E94F5
:104F9000DE180E94DE188093010204C1173961F502
:104FA00080914E0890914F08029708F444C10E94E6
:104FB000DE180E94DE184091470850914808609121
:104FC000490870914A084F5F5F4F6F4F7F4F409382
:104FD0004708509348086093490870934A08811124
:104FE00002C084E006C0813019F40E94FFA823C1EA
:104FF00082E00E9435A91FC1183931F580914E0811
:1050000090914F08029708F416C10E94DE180E9482
:10501000DE188091470890914808A0914908B09106
:105020004A080196A11DB11D809347089093480836
:10503000A0934908B0934A080E94F2A560E087ED6A
:105040009AE00E945C41F7C0193919F580914E0829
:1050500090914F08059708F4EEC00E94DE180E9458
:10506000F0188091470890914808A0914908B091A4
:105070004A080196A11DB11D8093470890934808E6
:10508000A0934908B0934A088CE498E00E94DF3965
:10509000D2C01A3911F580914E0890914F080297AD
:1050A00008F4C9C00E94DE180E94DE18409147082B
:1050B000509148086091490870914A084F5F5F4FCE
:1050C0006F4F7F4F409347085093480860934908BB
:1050D00070934A080E941F36AEC01C3931F580918A
:1050E0004E0890914F08029708F4A5C00E94DE1860
:1050F0008091470890914808A0914908B0914A08CA
:105100000196A11DB11D8093470890934808A09374
:105110004908B0934A080E94DE1891E0813009F0F6
:1051200090E0892F0E942A7686C01D3909F050C070
:1051300080914E0890914F08459708F47CC00E94DA
:10514000DE180E94DE18182F0E94DE1881E192E01E
:105150000E94A1DB1817B9F00E94450A60E08FEFAA
:105160000E94DD7510924F0810924E08109251085F
:105170001092500810925408109255080E948136DF
:105180001092E70703C081E08093E7070E94DE18D2
:105190000E94F0180E94E2180E94E2180E94F01883
:1051A0000E94F0180E94DE188091470890914808EC
:1051B000A0914908B0914A080196A11DB11D8093A4
:1051C000470890934808A0934908B0934A0833C011
:1051D0001E3989F580914E0890914F08059758F136
:1051E0000E94DE188091470890914808A0914908D4
:1051F000B0914A080196A11DB11D80934708909374
:105200004808A0934908B0934A080E94F0186B011F
:105210007C012FE632E143E85AE30E944FD687FF34
:1052200003C0C12CD12C760142E0C701B6010E9417
:10523000966E0E94D10A8091470890914808A091EB
:105240004908B0914A0881309A4CAA49BB4310F4EE
:105250000C945A3281E09AECAAE9BBE380934708A8
:1052600090934808A0934908B0934A080C945A3286
:105270008091E70781110C946B1A1092DE079091D0
:10528000921F8BE0989F802D11248E5D8093DF0705
:1052900060E070E08EED97E00E945A0A8AE5809304
:1052A000020285EA8093030285E08093040292E87B
:1052B000909305028093060284E780930702109280
:1052C00008028091921F880F880F880F809309022F
:1052D00068E082E092E00E948BA20E94450A60E0B2
:1052E0008FEF0E94DD7510924F0810924E081092B9
:1052F00051081092500810925408109255080E94BC
:1053000081360C946B1A9E01235E3F4F79018E010A
:105310000F5E1F4F20513109AE01475F5F4FBE0145
:105320006B5F7F4FCE0101960E9472598D8D817007
:105330008D8F40E081111BC067EE7BE1CE01459669
:105340000E94299DCE0145960E947B9D882311F4E1
:105350000C94791A60E080E192E00E94C1AA813049
:1053600011F00C94791A40E067EE7BE11AC063ED0E
:105370007BE1CE0145960E94299DCE0145960E9473
:105380007B9D882311F40C94791A60E080E192E00F
:105390000E94C1AA813011F00C94791A40E063EDAB
:1053A0007BE1CE0145960E94299DCE0145960E9443
:1053B0007B9D882311F40C94791A60E080E192E0DF
:1053C0000E94C1AA813011F00C94791A809145088D
:1053D00081110C94791A83E08093D30760E081E017
:1053E0000E943E3580E00E94FFA80C94791A8091BB
:1053F0000C02882301F18091450881111CC081E0D5
:105400008093590A0E94450A60E08FEF0E94DD7583
:1054100010924F0810924E081092510810925008A6
:10542000109254081092550885E08093D3070E948B
:1054300081360C947F1A8091430890914408892BFF
:1054400011F00C947F1A0E94CE430C947F1A0E9494
:10545000BF43682F8CE498E00E9496180C94291A98
:1054600080914E0890914F08892B11F00C94991A55
:105470000E94E6A90C94991A0E948CA9682F8CE4CA
:1054800098E00E9496180C94831A2091E507213029
:1054900061F482E08093E50780E491E09093F00767
:1054A0008093EF0720930B025EC813E010930B026A
:1054B0001092DE079091921F8BE0989F802D11240F
:1054C0008D5F8093DF0764ED77E08EED97E00E94BB
:1054D0005A0A8AE58093020285EA8093030285E0F6
:1054E0008093040282E880930502109206028BEBFF
:1054F00080930702109208021093090268E082E08C
:1055000092E00E948BA22FC88091A60E9091A50ECA
:10551000891B8F7009F09FC08091E3079091E40789
:10552000892B09F498C086E080930B021CC8209157
:10553000E507223079F58091E60781111FC080913F
:10554000F1079091F2079093EE078093ED0783E0C7
:105550008093E5071092E6071092F2071092F10788
:1055600081E080930B028091FD1681608093FD168F
:105570008091FD1682608093FD1606C08150809355
:10558000E60783E080930B021092E4071092E30792
:105590000C94B322233069F58091E60781111EC077
:1055A0008091F1079091F2079093EC078093EB07BD
:1055B0001092E5071092E6071092F2071092F10799
:1055C0008091FD1681608093FD168091FD168260AA
:1055D0008093FD1688E080930B0205C08150809374
:1055E000E60720930B021092E4071092E3070C9455
:1055F000B322213011F00C94B3228091E60781117F
:105600001EC08091F1079091F2079093F00780936C
:10561000EF0782E08093E5071092E6071092F20709
:105620001092F10720930B028091FD168160809308
:10563000FD168091FD1682608093FD1606C0815094
:105640008093E60783E080930B021092E4071092A8
:10565000E3070C94B3228091A60E9091A50E891BAE
:105660008F7031F08091E3079091E407892B89F0E6
:105670008091A60E9091A50E891B8F7011F40C9449
:10568000B3228091E3079091E407892B11F40C94E5
:10569000B32287E080930B020C94B322BE016B5EB1
:1056A0007F4FCE0101960E94AA718091E807873052
:1056B00009F057C062E070E0CE0101960E947C4282
:1056C000FC012091EB073091EC0784E1829FA0015F
:1056D000839F500D112480819181A281B381841B0D
:1056E000950BA109B10980839183A283B383B9018A
:1056F00080E090E00E9426D72DEC3CEC4CE45DE38A
:105700000E942CD8B8E2CB2EB3E2DB2E7B018C01B9
:1057100028E148E253E260E070E0CE0101960E9489
:1057200066738FE080930B028AE58093020285EA1C
:105730008093030285E08093040282E8809305024F
:10574000109206028BEB809307021092080284E00D
:105750008093090268E082E092E00E948BA20C94A0
:10576000B322883070F48230E1F662E070E0CE015E
:1057700001960E947C42FC012091ED073091EE07DA
:10578000A4CF8A3009F496CF8D3079F3CACFBE0109
:105790006B5E7F4FCE0101960E94AA7160E070E0BF
:1057A000CE0101960E947C42DC014D915D916D918C
:1057B0007C914F5C5D496F4F7F4FFC01408351836B
:1057C0006283738361E070E0CE0101960E947C42A7
:1057D000DC014D915D916D917C914957514061097A
:1057E0007109FC014083518362837383E0E5CE2E0F
:1057F000E6E4DE2EE12C10E8F12E05E813E428E1C2
:1058000040E556E460E070E0CE0101960E946673C8
:105810008DE180930B020C94B322BE016B5E7F4F2F
:10582000CE0101960E94AA718091E807863009F0A6
:1058300057C062E070E0CE0101960E947C42FC01FC
:105840002091EB073091EC0784E1829FA001839FB8
:10585000500D112480819181A281B381841B950B0D
:10586000A109B10980839183A283B383B90180E048
:1058700090E00E9426D72DEC3CEC4CE45DE30E94C6
:105880002CD8E8E2CE2EE3E2DE2E7B018C0128E16B
:1058900048E253E260E070E0CE0101960E94667338
:1058A0008FE080930B028AE58093020285EA809361
:1058B000030285E08093040282E88093050210923F
:1058C00006028BEB809307021092080284E080931B
:1058D000090268E082E092E00E948BA20C94B3225D
:1058E000873070F48530E1F662E070E0CE01019619
:1058F0000E947C42FC012091EF073091F007A4CF79
:10590000883091F38B3009F494CFCACFBE016B5E1F
:105910007F4FCE0101960E94AA7160E070E0CE0137
:1059200001960E947C42DC014D915D916D917C91CC
:10593000495E5E4B6F4F7F4FFC0140835183628312
:10594000738361E070E0CE0101960E947C42DC012D
:105950004D915D916D917C914B5F544B6F4F7F4F9B
:10596000FC01408351836283738360E5C62E66E445
:10597000D62EE12CF12C08E813E428E140E556E4AA
:1059800060E070E0CE0101960E9466738CE1809326
:105990000B020C94B3221092CB070C941E2481E0CE
:1059A00080930002C7CA2817390710F40C94B32259
:1059B000281B390B481B590B2530310568F445303D
:1059C000510510F40C94CD1C8AE080930B028BE0FF
:1059D0008093E8070C94B3224530510540F489E0E8
:1059E00080930B028AE08093E8070C94B3228091A5
:1059F000E207811103C082E08093E2078091E20711
:105A0000823059F44217530780F489E080930B02E7
:105A10008AE08093E8070C94B322813011F00C9453
:105A2000B3228091E8078A3041F48AE080930B0228
:105A30008BE08093E8070C94B3228B3011F00C9428
:105A4000B322E3CF80914E0890914F084A9708F413
:105A5000F2CB0E94DE1881E08093CB070E94F01801
:105A60006DAB7EAB8FAB98AF0E94F01869AF7AAF89
:105A70008BAF9CAF0E94F01821966CAF7DAF8EAFBC
:105A80009FAF21970E94F0184B018AA39EA30E940A
:105A9000F0186AA7272E8EA79AAB0E94F0182596B9
:105AA0006CAF7DAF8EAF9FAF25970E94DE18382E6A
:105AB0008091D007882369F180914B0881110DC036
:105AC000832D8F7E33FE16C08061382E8AA6292C46
:105AD0009AA19EA7AEA1AAAB1CC0832D877F34FEDE
